:020000040800F2
:100000004002002001010008A9040008AB04000818
:10001000AF040008B3040008B704000800000000A3
:10002000000000000000000000000000BB04000809
:10003000BD04000800000000BF040008C10400085F
:100040001701000817010008170100081701000830
:100050001701000817010008170100081701000820
:100060001701000817010008170100081701000810
:100070001701000817010008170100081701000800
:1000800017010008170100081701000817010008F0
:1000900017010008170100081701000817010008E0
:1000A00017010008170100081701000817010008D0
:1000B000B70300086B0300081701000817010008C8
:1000C00017010008170100081701000817010008B0
:1000D0001701000817010008D323000817010008C2
:1000E000390300081701000817010008DFF80CD0D9
:1000F00002F0A6F9004800477702000840020020FD
:1001000005480047FEE7FEE7FEE7FEE7FEE7FEE7FD
:10011000FEE7FEE7FEE7FEE7ED0000084FF40051C2
:10012000BB4A116040B1BA491439096841F4005121
:10013000B74A143A116007E0B5491439096821F447
:100140000051B34A143A1160704710B5044634B1F7
:10015000012240F22551AF4801F025FD05E00022C3
:1001600040F22551AB4801F01EFD10BD10B5022232
:10017000A9A1AA4802F04AF930B10222A8A1A748D1
:1001800002F044F9002867D1A6A002F0FFF800F0C1
:1001900088FA0020FFF7D9FFA04880783038642122
:1001A00048439E49C978303901EB810100EB410198
:1001B0009A4800793038084400019C490860974803
:1001C000407930386421484394498979303901EBCA
:1001D000810100EB41019148C0793038084400EBBF
:1001E00080004001924908608C4840782B2805D156
:1001F0004FF480518F4801F0C0F904E04FF4805172
:100200008C4801F0BCF98548007A422814D1834813
:10021000C07A4B2810D10120874908700020FFF7D1
:100220007DFF824800688549B1FBF0F48048016891
:10023000204600F0FAF91DE000207F490870FFF722
:100240006DFF7A4800687D49B1FBF0F47848016899
:10025000204600F0EAF90DE0082279A16F4802F08B
:10026000D5F820B901F0AEFF00F01BFA02E077A04C
:1002700002F08CF810BD01F0BDFE482001F0E4FE54
:1002800001F09AFF4FF4E13001F046FF4FF4E13006
:1002900002F012F86FA002F0E5F800F0F1F901F0B9
:1002A000ABFF4FF48041634801F069F94FF4FA70F5
:1002B00001F0E4FE4FF480415E4801F05EF941F642
:1002C0001F41312000F0FEF801F0B8FF0020FFF7D9
:1002D00025FF00206C490870574908706B49087069
:1002E00001F070FF27E000F0DCF968480078012891
:1002F00008D1FFF73BFF02F07FF800206349087048
:100300006349087060480078012814D100205E49D4
:1003100008704FF48051474801F02FF90120FFF792
:10032000FDFE4FF4FA6001F0A9FE00F0BAF940F2C8
:10033000712000F095F9D6E710B54FF4005001F0A8
:10034000ABFD88B100214FF0804000F00EFD002091
:10035000FFF7E4FE0120FFF7F8FE4FF4005001F034
:10036000ACFD4CA002F012F810BD10B501214B48B5
:1003700000F0D9FF01281DD10021800700F0F5FC15
:100380000021464800F0F1FC0121444800F0DCFF68
:1003900000220121414800F003FD27480078012890
:1003A00002D13949087005E00120FFF7CEFE39A0DF
:1003B00001F0ECFF10BD10B50121880700F0B3FF7C
:1003C000012823D132480078E0B13148007834491F
:1003D000097888420FD133480078401C31490870B1
:1003E0000846007804280DDB012028490870002009
:1003F0002C49087006E000202A490870244800783B
:10040000274908700121880700F09EFF10BD0000F9
:1004100014040140004400404D2B00003000002037
:100420004D2D00004D3D4745540A000004000020BA
:1004300008000020000C01400D00002040420F0089
:100440004241434B5A45524F00000000453D330A9C
:100450000000000079757975797579757975797508
:10046000797579757972616E72616E72616E7261A1
:100470006E72616E72616E72616E72616E72616EC9
:1004800072616E72616E0A000C0000200300002091
:10049000000000204D3D4F4B0A00000000040040CA
:1004A0000100002002000020704700BFFEE700BFEF
:1004B000FEE700BFFEE700BFFEE7704770477047EA
:1004C000704700007FB505460C460121084601F043
:1004D00050FAADF80850ADF804400020ADF8060021
:1004E000ADF80A0001A94FF0804000F0B8F90122F0
:1004F0001146900700F054FC0121880700F035FCFC
:100500001C208DF8000001208DF8010003208DF8DB
:10051000020001208DF80300684600F0CCF87FBD92
:1005200010B588B004460121042001F022FA01210F
:10053000082001F011FA8020ADF81C0018208DF879
:100540001F0003208DF81E0007A94A4800F068FF2D
:10055000601E80B2ADF814004720ADF810000020F6
:10056000ADF81600ADF8120004A9434800F077F981
:100570006020ADF800000120ADF80200C0EB54008F
:1005800080B2ADF806000220ADF8080069463A488E
:1005900000F0B5F98021384800F089FE2021364866
:1005A00000F073FE0821344800F019FD01213248A3
:1005B00000F0DCFC08B010BD1FB50446012102208C
:1005C00001F0D7F9601E80B2ADF808000020ADF848
:1005D0000400ADF80A00ADF8060001A9274800F0B4
:1005E0003EF91021254800F0FAFB24480830008825
:1005F00040F00700214908310880002201211F48EE
:1006000000F0CEFB4FF4806000F050F81D208DF814
:10061000000000208DF8010001208DF802008DF807
:100620000300684600F047F81FBD70B505460C464C
:100630002046FFF7C1FF0121104800F096FB012181
:100640000E4800F081FE012211460C4800F0A8FB84
:100650002846FFF765FF0121074800F086FB70BDC3
:1006600010B504462046FFF75BFF0121024800F069
:100670007CFB10BD000C014000080040000400405D
:1006800010B545F2555001F023FC062001F023FC83
:1006900040F20D3001F022FC01F023FC01F026FCB9
:1006A00010BD10B501F01DFC10BD00003149014323
:1006B000314A1160704770B5002100230F22C478C1
:1006C00004B32D4C246804F4E064C4F5E064210A0A
:1006D000C1F10403CA40447804FA03F18478144059
:1006E00021430901254C0678A155047804F01F0523
:1006F0000124AC4005786D11AD0005F1E025C5F889
:10070000004109E0047804F01F050124AC401C4DB1
:100710000678761145F8264070BD1A4A0A40024311
:10072000154B1B1F1A60704739B1134A121D12680E
:100730000243114B1B1D1A6006E00F4A121D12687E
:1007400082430D4B1B1D1A607047042808D14FF0DF
:10075000E021096941F004014FF0E022116107E056
:100760004FF0E021096921F004014FF0E02211610E
:10077000704700000000FA050CED00E000E400E026
:1007800080E100E080FFFF1F10B50446F749601AC2
:100790008C4245D00CDCB4F1804F1DD0F44820448D
:1007A00018B3B0F5806F29D0B0F5006F54D12EE0AA
:1007B000B0F5806F3DD0B0F58E3F03D0B0F5923FDD
:1007C0004AD13FE00121C80201F0E0F800214FF4D6
:1007D000006001F0DBF840E00121084601F0E3F899
:1007E0000021012001F0DFF837E00121022001F0B3
:1007F000DAF80021022001F0D6F82EE001210420D1
:1008000001F0D1F80021042001F0CDF825E001210C
:10081000082001F0C8F80021082001F0C4F81CE00D
:100820000121102001F0BFF80021102001F0BBF8D9
:1008300013E00121202001F0B6F80021202001F072
:10084000B2F80AE00121480301F0A0F800214FF4BA
:10085000005001F09BF800E000BF00BF10BD02880F
:1008600002F08F020280CA884B881A4303881A4319
:1008700002808A8882850A880285BE4A904202D018
:10088000BD4A904201D10A7A0286012282827047D3
:1008900070B5002400220023058C4FF6FE7635400B
:1008A0000584028C8388048B4FF68F752C400D884D
:1008B0002C43751E2A400D892A434D882A43CD8832
:1008C0008586AC4DA84202D0AB4DA84213D14FF65D
:1008D000F7752A404D892A434FF6FB752A408D88CB
:1008E0002A4347F6FF652B4047F6FF552B408D897D
:1008F0002B43CD892B4383800483028470BD70B564
:10090000002400220023058C4FF6EF763540058445
:10091000028C8388048B48F6FF752C400D884FF6B7
:10092000FF7606EA05252C434FF6DF752A400D8930
:1009300006EA05152A434D8806EA05152A43CD889F
:1009400005878C4DA84202D08B4DA8421DD14FF691
:100950007F752A404D894FF6FF7606EA05152A4332
:100960004FF6BF752A408D8806EA05152A4347F6DB
:10097000FF352B4047F2FF752B408D8906EA850530
:100980002B43CD8906EA85052B43838004830284AB
:1009900070BD70B5002400220023058C4FF6FF6661
:1009A00035400584028C8388848B4FF68F752C40EC
:1009B0000D882C434FF6FF552A400D894FF6FF76E0
:1009C00006EA05252A434D8806EA05252A43CD88EF
:1009D0008587684DA84202D0674DA8421DD14FF2CD
:1009E000FF752A404D894FF6FF7606EA05252A4312
:1009F0004FF6FF352A408D8806EA05252A4346F63C
:100A0000FF752B4045F6FF752B408D8906EA0515CD
:100A10002B43CD8906EA05152B438380848302840A
:100A200070BD70B5002400220023058C4EF6FF76C1
:100A300035400584028C8388848B48F6FF752C40F2
:100A40000D884FF6FF7606EA05252C434DF6FF7517
:100A50002A400D8906EA05352A434D8806EA053500
:100A60002A43CD88A0F84050424DA84202D0424DC2
:100A7000A84207D1C3F30D038D894FF6FF7606EA2E
:100A800085152B4383808483028470BD828B4FF253
:100A9000FF331A408283828B4FF6FF7303EA0123F0
:100AA0001A4382837047F0B50C4615460021002298
:100AB0000026078C4EF6FF7C07EA0C070784818B23
:100AC000028C4FF6FF7707EA043640F6FF473940BD
:100AD0004FF6FF7707EA05274FF6FF7C0CEA033C49
:100AE00047EA0C0739434DF6FF773A4046F4805702
:100AF0003A4381830284F0BD828B4FF6F3731A4030
:100B00008283828B0A4382837047F0B50C46154678
:100B1000002100220026078C4FF6FF6C07EA0C0725
:100B20000784818B028C4FF6FF7707EA04264FF685
:100B30000C7739404FF6FF7707EA03172F43394305
:100B40004FF6FF573A4046F480773A438183028458
:100B5000F0BD028B4FF2FF331A400283028B4FF637
:100B6000FF7303EA01231A43028370470010004019
:100B700000FCFFBF002C014000340140F0B50C46E2
:100B80001546002100220026078C4FF6EF7C07EA6D
:100B90000C070784018B028C4FF6FF7707EA0416D7
:100BA00040F6FF4739404FF6FF7707EA03373943EE
:100BB0004FF6FF7707EA052739434FF6DF773A40CC
:100BC00046F010073A4301830284F0BD028B4FF6D2
:100BD000F3731A400283028B0A4302837047F0B515
:100BE0000C46154600210022068C4FF6FE773E404B
:100BF0000684018B028C4FF60C7631407E1C06EA8F
:100C000003162E4331437E1E324044F00106324328
:100C100001830284F0BD70B505460C46208850B9AA
:100C20002389A28861882846FFF7D9FFE1882846F2
:100C3000FFF7CCFF25E0208804280AD12389A28869
:100C400061882846FFF79AFFE1882846FFF781FF71
:100C500017E0208808280AD12389A28861882846BD
:100C6000FFF753FFE1882846FFF746FF09E0238995
:100C7000A28861882846FFF716FFE1882846FFF71B
:100C800005FF70BD2DE9F04105460C460026012701
:100C9000608808B9022600E00026A088012801D15A
:100CA000022700E001272088A0B92389A288618853
:100CB0002846FFF794FFE1882846FFF787FF23893E
:100CC0003A4631462846FFF759FFE1882846FFF7A4
:100CD00040FF13E02389A28861882846FFF74EFF72
:100CE000E1882846FFF735FF23893A4631462846F2
:100CF000FFF775FFE1882846FFF768FFBDE8F08140
:100D00000A884B881A438B881A43CB881A430B896D
:100D10001A434B891A438B891A43A0F84420704721
:100D20004FF6FF71818000210180C18041800172F6
:100D300070470021018041808180C1800181418113
:100D40008181C18170470021018041800121818022
:100D50000021C18001817047002101804180818094
:100D6000C180018141818181704721B1028842F0B7
:100D70000102028004E0028840F2FE331A40028041
:100D8000704731B1B0F8442042F40042A0F844204A
:100D900005E0B0F84420C2F30E02A0F844207047EA
:100DA0001AB183890B43838102E083898B4383815A
:100DB00070478182704741EA0203A0F848307047CB
:100DC0001AB183890B43838102E083898B4383813A
:100DD000704701894FF6F8721140018170470A4649
:100DE000002101894FF68F7319401143018170472B
:100DF00030B504460D4629462046FFF7F0FF20890E
:100E000040F00700208130BD2DE9F04104460D4639
:100E100016461F46602D06D13B460122314620462C
:100E2000FFF7ACFE05E03B46012231462046FFF7C6
:100E3000D6FE29462046FFF7D2FF208940F0070062
:100E40002081BDE8F08170B50C4600210189C9B24E
:100E500044EA02054FF6FF7606EA032635432943A6
:100E6000018170BD2DE9F04105460E4617469846B2
:100E7000002443463A4631462846FFF7E4FF2C89D2
:100E80004FF6F870044044F007044FF68F700440AA
:100E900044F070042C81BDE8F081F0B504460D46A5
:100EA00016461F463B46324629462046FFF7CBFFF3
:100EB000208940F480402081F0BD01858282704706
:100EC0000A460021018840F28F3319401143018006
:100ED0007047F0B50C4615461E460021002200233F
:100EE0000189028B038C4FF6F877394021434FF686
:100EF000FC473A4040F201173A434FF6DD773B405A
:100F00004FF6FF7707EA06172F433B430181028321
:100F10000384F0BD0A460021018B4FF68F73194000
:100F20001143018370470A460021018B48F6FF7385
:100F300019404FF6FF7303EA0223194301837047F8
:100F40000A460021818B4FF68F731940114381832C
:100F500070470A460021818B48F6FF7319404FF60F
:100F6000FF7303EA022319438183704721B102888A
:100F700042F08002028004E0028840F27F331A408F
:100F80000280704721B1828842F00402828004E02E
:100F900082884FF6FB731A408280704721B18288A5
:100FA00042F00802828004E082884FF6F7731A400C
:100FB0008280704721B1828842F00102828004E081
:100FC00082884FF6FE731A40828070470A460021DD
:100FD000018B4FF6F77319401143018370470A469E
:100FE0000021018B4FF2FF7319404FF6FF7303EAA4
:100FF00002231943018370470A460021818B4FF673
:10100000F77319401143818370470A460021818B91
:101010004FF2FF7319404FF6FF7303EA022319439F
:10102000818370470A460021018B4FF6FB731940FC
:101030001143018370470A460021018B4FF6FF33AD
:1010400019404FF6FF7303EA0223194301837047E7
:101050000A460021818B4FF6FB73194011438183AF
:1010600070470A460021818B4FF6FF3319404FF637
:10107000FF7303EA02231943818370470A46002164
:10108000018B4FF67F7319401143018370470A4665
:101090000021018BC1F30E014FF6FF7303EA022317
:1010A0001943018370470A460021818B4FF67F73F5
:1010B00019401143818370470A460021818BC1F397
:1010C0000E014FF6FF7303EA022319438183704731
:1010D0000A460021018C4FF6FD731940114301842B
:1010E00070470A460021018C4FF6F77319401143EF
:1010F000018470470A460021018C4FF6DF731940C6
:101100004FF6FF7303EA02131943018470470A463E
:101110000021018C4FF67F7319404FF6FF7303EAED
:1011200002131943018470470A460021018C4FF6CF
:10113000FF5319404FF6FF7303EA0223194301845A
:1011400070470A460021018C4FF2FF7319404FF699
:10115000FF7303EA02231943018470470A46002102
:10116000018C4DF6FF7319404FF6FF7303EA02330B
:1011700019430184704710B5038C01248C40A343AC
:101180000384038C02FA01F4A4B22343038410BD48
:1011900010B5038C04248C40A3430384038C02FA0F
:1011A00001F4A4B22343038410BD30B5038C0124A1
:1011B0008C40A343038409B1082918D100F1180316
:1011C00003EB61031B684FF68F74234000F1180492
:1011D00004EB6104236000F1180303EB61031B6857
:1011E000134300F1180404EB610423601FE00B1F9C
:1011F000C3F34E0400F118031B5948F6FF74234053
:101200000C1FC4F34E0500F1180463510B1FC3F308
:101210004E0400F118031B594FF6FF7404EA022430
:1012200023430C1FC4F34E0500F11804635130BD75
:1012300021B1028842F00202028004E0028840F2FA
:10124000FD331A400280704721B1028842F0040247
:10125000028004E0028840F2FB331A4002807047AB
:1012600021B1828842F08002828004E082884FF6B9
:101270007F731A4082807047028840F2F7331A4029
:10128000028002880A430280704782884FF68F737B
:101290001A40828082880A438280704702894FF612
:1012A000F8731A40028102890A4302817047028959
:1012B0004FF67F731A40028102890A430281704708
:1012C00081847047818570478186704701877047A8
:1012D00081877047A0F8401070470288D2B2028020
:1012E00002880A43028070470146888E7047014693
:1012F000088F70470146888F70470146B1F840005B
:1013000070470146888C70470146088D7047024639
:101310000020138A0B400BB1012000E00020704731
:10132000CA430282704730B50246002000230024E1
:10133000158A05EA0103958905EA010413B10CB188
:10134000012000E0002030BDCA4302827047000047
:1013500010B50446C649601A8C422FD009DCC54836
:10136000204480B1B0F5806F16D0B0F5006F4AD13F
:101370001BE0B0F5806F2AD0B0F5006F30D0B0F52B
:10138000406F40D135E00121042000F0FFFA002138
:10139000042000F0FBFA37E00121082000F0F6FA03
:1013A0000021082000F0F2FA2EE00121102000F0C8
:1013B000EDFA0021102000F0E9FA25E001212020BB
:1013C00000F0E4FA0021202000F0E0FA1CE0012106
:1013D000402000F0DBFA0021402000F0D7FA13E0B3
:1013E0000121802000F0D2FA0021802000F0CEFA06
:1013F0000AE00121080200F0C9FA00214FF48070D0
:1014000000F0C4FA00E000BF00BF10BD10B501211C
:10141000084600F0BBFA0021012000F0B7FA10BD29
:101420002DE9F0410246002500260020002300247B
:10143000002791F803C00CF00F0591F803C00CF0E1
:10144000100CBCF1000F03D091F802C04CEA050566
:1014500091F800C0BCF1000F31D0146800202BE0DF
:101460004FF0010C0CFA00F3B1F800C00CEA0306CF
:101470009E4220D183004FF00F0C0CFA03F7BC43BF
:1014800005FA03FC4CEA040491F803C0BCF1280FF0
:1014900006D14FF0010C0CFA00FCC2F814C00AE0AF
:1014A00091F803C0BCF1480F05D14FF0010C0CFAC4
:1014B00000FCC2F810C0401C0828D1D31460B1F859
:1014C00000C0BCF1FF0F34DD546800202EE000F1B5
:1014D000080C4FF0010808FA0CF3B1F800C00CEA50
:1014E00003069E4221D183004FF00F0C0CFA03F744
:1014F000BC4305FA03FC4CEA040491F803C0BCF1B8
:10150000280F05D100F1080C08FA0CF8C2F8148075
:1015100091F803C0BCF1480F07D100F1080C4FF05F
:10152000010808FA0CF8C2F81080401C0828CED335
:101530005460BDE8F0814FF6FF7101800221817097
:101540000421C17070470246002093680B400BB124
:10155000012000E0002070470146886880B2704793
:1015600002460020D3680B400BB1012000E00020B0
:1015700070470146C86880B2704701617047416199
:1015800070470AB1016100E041617047C160704776
:101590004FF480320A43826181618261826982698B
:1015A000704702460020344B18684FF6807318408D
:1015B00040EA02100843304B186070472F49C86159
:1015C0007047F0B50A4600230024002100252A4E6A
:1015D0007168C0F3034583B200F44016B6F5401FAE
:1015E00008D121F07061244E766826F07066224F93
:1015F0007E6012E000F48016B6F5801F06D1032647
:1016000006FA05F4A14341F0706106E0460D36018B
:1016100003FA06F6B14341F0706122B1460D36017E
:1016200003FA06F63143144E7160F0BD30B5002266
:101630008B071C0F0F2303FA04F20F4B08338C1097
:1016400053F8243093430C4C08348D1044F8253063
:1016500023468C1053F824308C07240F00FA04F42E
:101660002343054C08348D1044F8253030BD00006C
:101670000014014000F8FEBF0000014000002042BD
:10168000DE48006840F00100DC4908600846406818
:10169000DB490840D949486008460068D9490840F4
:1016A000D64908600846006820F480200860084693
:1016B000406820F4FE004860002088607047CF49F1
:1016C000096821F48031CD4A11601146096821F47E
:1016D00080211160B0F5803F03D0B0F5802F0ED18E
:1016E00006E0C649096841F48031C44A116007E048
:1016F000C249096841F4A021C04A116000E000BF5E
:1017000000BF704710B501460022002300204A1197
:10171000012A02D1B94C236806E0022A02D1B74C53
:10172000236A01E0B54C636A01F01F020124944072
:101730001C400CB1012000E0002010BD38B5002095
:1017400000900024002500BF3120FFF7DBFF054695
:101750000098401C00901DB90098B0F5A06FF3D11F
:101760003120FFF7CFFF08B1012400E0002420461C
:1017700038BD01460020A14A106820F0F80040EA78
:10178000C10010607047A049086070470246002001
:101790009A4B586820F47C1042EA01031843974B97
:1017A0005860704798490866704701460020934A80
:1017B000506820F003000843506070478F4840682D
:1017C00000F00C007047014600208C4A506820F061
:1017D000F00008435060704701460020874A506877
:1017E00020F4E06008435060704701460020834ABF
:1017F000506820F4605040EAC1005060704729B141
:101800007E4A527A02437D4B5A7204E07B4A527AF6
:1018100082437A4B5A7270477B49D83108607047CF
:1018200001460020754A506820F44040084350604B
:1018300070470021714A20321170704A82F82010DE
:10184000012802D004280AD104E001216B4A203289
:10185000117005E00521694A2032117000E000BFD7
:1018600000BF70476949086070476449096A0143CD
:10187000624A11627047654944390860704730B563
:1018800000210022002400235C4D6D6805F00C014E
:1018900021B1042905D0082923D105E05C4D05605C
:1018A00022E05B4D05601FE0544D6D6805F4701239
:1018B000022505EB9242514D6D6805F480341CB948
:1018C000544D554305600BE04C4D6D6805F40035F3
:1018D0001DB1504D5543056002E04D4D5543056027
:1018E00002E04B4D056000BF00BF444D6D6805F040
:1018F000F0010909484D6B5C0568DD4045603F4DCE
:101900006D6805F4E061090A434D6B5C4568DD4094
:1019100085603A4D6D6805F46051C90A3E4D6B5CB7
:101920004568DD40C560354D6D6805F44041890B63
:101930003A4D6B5CC568B5FBF3F5056130BD29B167
:101940002E4A526902432D4B5A6104E02B4A5269D8
:1019500082432A4B5A61704729B1284A926902434F
:10196000264B9A6104E0254A92698243234B9A618F
:10197000704729B1214AD2690243204BDA6104E061
:101980001E4AD26982431D4BDA61704729B11B4A56
:10199000D2680243194BDA6004E0184AD2688243E5
:1019A000164BDA60704729B1144A12690243134B8F
:1019B0001A6104E0114A12698243104B1A617047A0
:1019C00012494039086070470F49C86470470B4995
:1019D000C87170470948406A40F080700749486202
:1019E000704701460020054A92680A400AB101206A
:1019F00000E00020704701498872704700100240E3
:101A00000000FFF8FFFFF6FE000042428004424261
:101A100000127A0000093D000E0000201E00002088
:101A200010B50446D749601A8C422BD006DCD64844
:101A3000204498B1B0F5806F38D119E0B0F5806FCF
:101A40002AD0B0F56C4F31D101218803FFF79EFFFA
:101A500000214FF48040FFF799FF28E0012148045E
:101A6000FFF7A1FF00214FF40030FFF79CFF1EE0BD
:101A700001218804FFF797FF00214FF48020FFF732
:101A800092FF14E00121C804FFF78DFF00214FF4FD
:101A90000020FFF788FF0AE001210805FFF783FF18
:101AA00000214FF48010FFF77EFF00E000BF00BF71
:101AB00010BD2DE9F04786B005460E460024A2462B
:101AC00000BF00BF00272F462C8A4CF6FF70044051
:101AD000F08804432C82AC894EF6F3100440B088A1
:101AE00031890843718908430443AC81AC8A4FF6BD
:101AF000FF400440B0890443AC8201A8FFF7BFFE59
:101B0000A248874202D1DDF810A001E0DDF80CA068
:101B10000AEBCA0000EB0A1031688900B0FBF1F84B
:101B20006420B8FBF0F004012009642101FB108956
:101B3000322000EB0910B0FBF1F000F00F0004437D
:101B40002C8106B0BDE8F0874FF4165101600021EA
:101B50008180C18001810C214181002181817047F8
:101B600010B502460020108A4FF2FF0318400B8880
:101B70004C8823438C882343CC882343184310820A
:101B800010BD0021018041808180C180704721B15A
:101B9000828942F40052828104E082894DF6FF730B
:101BA0001A4082817047F0B50346002400260025C4
:101BB00000201846C1F3421401F01F06012707FA5E
:101BC00006F5012C01D10C3004E0022C01D11030BB
:101BD00000E014301AB107682F43076002E007687D
:101BE000AF430760F0BD1AB1838A0B43838202E0E2
:101BF000838A8B4383827047028A4FF6F0731A40C0
:101C00000282028A0A430282704782894FF2FF737E
:101C10001A40828182890A438281704721B1828978
:101C200042F00202828104E082894FF6FD731A407D
:101C300082817047028A4FF6DF731A400282028A5D
:101C40000A430282704721B1028A42F48042028232
:101C500004E0028A4BF6FF731A4002827047C1F318
:101C600008028280704701468888C0F308007047E8
:101C7000818941F0010181817047028BD2B20283D8
:101C8000028B42EA012202837047028B02F47F42F8
:101C90000283028B0A430283704721B1828A42F099
:101CA0002002828204E0828A4FF6DF731A40828229
:101CB000704721B1828A42F01002828204E0828A57
:101CC0004FF6EF731A408282704721B1828A42F048
:101CD0000802828204E0828A4FF6F7731A408282F9
:101CE0007047828A4FF6FB731A408282828A0A43C7
:101CF0008282704721B1828A42F00202828204E02D
:101D0000828A4FF6FD731A40828270470246002095
:101D100013880B400BB1012000E000207047CA433C
:101D20000280704770B502460B4600240021002552
:101D30000020C3F3421503F01F01012606FA01F14A
:101D4000012D02D19689314006E0022D02D1168A7A
:101D5000314001E0968A31401C12012606FA04F453
:101D60001688344011B10CB1012000E0002070BD94
:101D700010B5002200230A1201249440A3B2DC43D0
:101D8000048010BD004C004000BCFFBF0038014083
:101D900000204C490860091D0860091D0860091DE4
:101DA0000860494847491431086070478179002923
:101DB00046D04449096802689143424A1160111DA6
:101DC0000968026891433F4A121D116001793F4A38
:101DD0001144D1F800140268114302793B4B1A44B4
:101DE000C2F8001437490831096802689143354A3E
:101DF00008321160111D096802689143314A0C32A2
:101E00001160417910290ED1111F09680268114330
:101E10002C4A08321160111D096802681143294AD1
:101E20000C32116018E04179284A1144D1F80014AD
:101E3000026811434279254B1A44C2F800140BE0A2
:101E40000179224A1144D1F80014026891430279C1
:101E50001E4B1A44C2F80014704700210160017142
:101E60000C214171002181717047164910310968B8
:101E70000143144A10321160704701460020114A94
:101E8000143212680A400AB1012000E000207047B5
:101E90000C49143108607047014600200022094BAC
:101EA0001B6803EA0102074B14331B680B4013B194
:101EB0000AB1012000E00020704702491431086097
:101EC0007047000000040140FFFF070000000140D0
:101ED0000E49086070470D49486070470B4988609B
:101EE00070474AF6AA200949086070474CF6CC4072
:101EF00006490860704701460020044AD2680A403B
:101F00000AB1012000E000207047000000300040CE
:101F10000CB50020019000904748006840F48030E4
:101F20004549086000BF4448006800F40030009054
:101F30000198401C0190009818B90198B0F5A06F65
:101F4000F1D13D48006800F4003010B1012000904C
:101F500001E0002000900098012844D13748006833
:101F600040F01000354908600846006820F0030082
:101F700008600846006840F0020008602E4840688B
:101F80002D4948600846406848600846406840F46B
:101F9000806048600846406820F47C10486008462D
:101FA000406840F4E81048600846006840F08070DF
:101FB000086000BF2048006800F000700028F9D0D9
:101FC0001D48406820F003001B49486008464068EF
:101FD00040F00200486000BF1748406800F00C0065
:101FE0000828F9D101E000BFFEE70CBD10B5FFF7EE
:101FF0008FFF10BD10B51048006840F001000E4979
:102000000860084640680E4908400B494860084689
:1020100000680C490840084908600846006820F438
:10202000802008600846406820F4FE0048600020D8
:102030008860FFF7DBFF10BD001002400020024067
:102040000000FFF8FFFFF6FE10B504466FF0040035
:10205000FEF77BFBE11704EB5171C1F3C701234A83
:1020600011701046007800EB4001C1EBC0104FF634
:10207000FF7101EAC0001E49088010BD01461C4ADC
:1020800012884A434FF0E0235A6100229A610122EC
:102090001A6100BF4FF0E022106900F001021AB18E
:1020A00000F48032002AF5D000224FF0E0231A61BC
:1020B0009A61704701460D4A12784A434FF0E02377
:1020C0005A6100229A6101221A6100BF4FF0E0229A
:1020D000106900F001021AB100F48032002AF5D034
:1020E00000224FF0E0231A619A617047220000201D
:1020F0002400002000BF704770B504460D46E1B2D1
:102100002B48FFF7ACFD00BF40212948FFF7FEFD3B
:102110000128F9D1204670BD10B586B004460121D2
:1021200044F20400FFF718FC4FF40070ADF81400FF
:1021300003208DF8160018208DF8170005A91D48FA
:10214000FFF76EF94FF48060ADF8140004208DF8AD
:10215000170005A91748FFF763F925208DF800003F
:1021600003208DF801008DF8020001208DF8030096
:102170006846FEF7A0FA01940020ADF80800ADF81B
:102180000A00ADF80C00ADF810000C20ADF80E0000
:1021900001A90748FFF78DFC002240F225510448B1
:1021A000FFF701FD01210248FFF7F1FC06B010BD69
:1021B000003801400008014010B54FF4A060FEF760
:1021C00075FA10BD10B54FF480513748FFF7D7F9B5
:1021D0000A20364908603C2035490860012035490D
:1021E00008604FF4486140F27120FEF71EFA4FF488
:1021F000FA60FFF743FF10BD08B501210820FFF783
:10220000ABFB4FF48050ADF8000014208DF80300B4
:1022100003208DF8020069462348FFF701F94FF4C7
:102220008040ADF8000010208DF8030003208DF8E9
:10223000020069461C48FFF7F3F808BD1FB50121ED
:102240000920FFF789FB4FF4C060FEF72FFA282022
:102250008DF8000000208DF801008DF802000120AB
:102260008DF803006846FEF726FA4FF40050ADF8EB
:102270000C0004208DF80F0003A90B48FFF7D0F8DD
:102280000D210120FFF7D2F94FF4005001900020FA
:102290008DF808000C208DF8090001208DF80A0047
:1022A00001A8FFF783FD1FBD000C014004000020C2
:1022B000080000200D00002010B586B00446012162
:1022C0000420FFF749FB01214804FFF752FB0420DB
:1022D000ADF8140003208DF8160018208DF81700B3
:1022E00005A95348FFF79CF80820ADF81400042016
:1022F0008DF8170005A94E48FFF792F826208DF8B3
:10230000000003208DF8010002208DF8020001205A
:102310008DF803006846FEF7CEF901940020ADF871
:102320000800ADF80A00ADF80C00ADF810000C2064
:10233000ADF80E0001A93F48FFF7BBFB012240F2B8
:1023400025513C48FFF72FFC01213A48FFF71FFCBD
:1023500006B010BD00BF3749098801F0800100298F
:10236000F9D03449091D088070470CE000BF314A9C
:10237000128802F08002002AF9D002782D4B1B1D32
:102380001A80401C491E0029F0D1704710B5044640
:102390000BE014F8011B2748FFF761FC00BF802108
:1023A0002448FFF7B3FC0028F9D020780028F0D1AA
:1023B00010BD2149214A1278885420490978491CC6
:1023C0001E4A1170114609780F2901DB0021117096
:1023D000704710B540F225511648FFF7A3FC50B1E5
:1023E0001448FFF740FCC4B22046FFF7E2FF20216B
:1023F0001048FFF794FC10BD002004E000210E4AB5
:102400001154411CC8B20A28F8DB704730B50346A6
:10241000002406E0641C944201D1002030BD5B1C06
:10242000491C18780D78A842F4D04FF0FF30F5E73A
:10243000000801400044004030000020000000205F
:10244000064C074D06E0E06840F0010394E8070001
:1024500098471034AC42F6D3FDF74CFEB424000884
:10246000D4240008014A024900F013B8F9200008FA
:102470002800002002E008C8121F08C1002AFAD173
:1024800070477047002001E001C1121F002AFBD1F4
:1024900070472DE9F04116460F460446002503E03B
:1024A0003946B047641C6D1C20780028F8D12846B6
:1024B000BDE8F081D42400080000002030000000B6
:1024C00074240008042500083000002010020000D9
:1024D000842400080000000000000000000000004C
:1024E00000000000000001020304010203040607CB
:1024F00008090204060800000000000000000000B7
:0425000000000000D7
:04000005080000ED02
:00000001FF
